S00B00004144432E7372656351
S113000071C000008EC000008CC000008AC00000D7
S113001088C0000086C0000084C0000082C00000C8
S113002080C000007EC000007CC000007AC00000D8
S113003078C0000076C0000074C0000072C00000E8
S113004070C000006EC000006CC000006AC00000F8
S113005068C0000058C1000064C0000062C0000015
S113006060C00000AFC5000024C400005AC00000F6
S113007058C0000056C0000054C0000052C0000028
S113008050C000004EC000004CC000004AC0000038
S1130090C4C500005AC4000044C0000042C00000AF
S11300A040C000003EC000003CC000003AC0000058
S11300B038C0000036C0000034C0000032C0000068
S11300C030C000002EC000002CC00000D1C50000CC
S11300D088C4000026C00000F6C50000CEC400009D
S11300E020C0000011241FBECFEFD1E2DEBFCDBF80
S11300F000E00CBF12E0A0E0B2E0E2E4FEE000E0C9
S11301000BBF02C007900D92A034B107D9F72CE0C1
S1130110A0E4B2E001C01D92A931B207E1F7ABD06F
S11301208EC66ECF2F923F924F925F926F927F92C4
S11301308F929F92AF92BF92CF92DF92EF92FF92F3
S11301400F931F93CF93DF932091E4033091180C06
S1130150F894EDB6FEB67894E6EEF3E0220FC0E034
S1130160D2E0C20FD11D1991D881C12F18811A3A3A
S113017021F08091E403912D12C1220FE20FF11DB1
S1130180E192F0822091170C3091E503409106042E
S1130190232B242B3091E4034091180C68E08894BD
S11301A033953770441F411D742F422319F06A950B
S11301B0B9F7E8CF3093E4037093180CE6EEF3E05C
S11301C0330F330FE30FF11D21913081F8942DBFCC
S11301D03EBF7894DF91CF911F910F91FF90EF90E4
S11301E0DF90CF90BF90AF909F908F907F906F9053
S11301F05F90852D4F90942D3F90632D2F90722DFD
S11302000895EEE0F2E0E80FF11D849108950102F3
S1130210040810204080CF92DF92FF920F931F9327
S1130220CF93DF93C4E0D0E00AE710E00F2EF9E7A4
S1130230CF2ED12CF02DF801808180648083F601CB
S1130240F08085E090E049D02197A9F78F2D90E0C8
S11302509595879595958795DF91CF911F910F91EE
S1130260FF90DF90CF90089584E880937A0080E631
S113027080937C000895CF93DF9300D01F92CDB775
S1130280DEB7F2DF26E030E040E052EC61E070E0FF
S113029080E090E065D2CE0101967C0180E0BBDF76
S11302A04AE0B70199D5670100E010E008C0F60103
S11302B061916F0180E090E031D50F5F1F4FF7012E
S11302C001900020E9F73197EE19FF090E171F0777
S11302D070F388EC90E001D0E1CF9C019FB7F894D3
S11302E0E091E403F0E0EE0FFF1FE95FF34F318389
S11302F020832091E5038091180C822B8093E503E1
S11303009FBF10CF08951F920F920FB60F92112422
S11303100BB60F922F933F934F935F938F939F93BB
S1130320AF93BF93EF93FF9380914002909141026A
S1130330A0914202B09143020196A11DB11D809388
S1130340400290934102A0934202B0934302309141
S1130350E503E7E0FCE047E15CE021E08081918196
S1130360019781939193892B19F4822F80953823D7
S1130370220FE417F50791F73093E503FF91EF910E
S1130380BF91AF919F918F915F914F913F912F9129
S11303900F900BBE0F900FBE0F901F901895AC01DD
S11303A0279A2F982FEF31EE74E02150304070409F
S11303B0E1F700C0000060E080E05523FCF0262F48
S11303C0382F95B1905895B99FEFE0E772E09150BE
S11303D0E0407040E1F700C0000095B1905895B935
S11303E09FEFE9E678E19150E0407040E1F700C00A
S11303F000002F5F3F4F421753071CF79FEFE3E2C4
S113040024EF9150E0402040E1F700C00000D5CF38
S1130410FC01EE0FFF1FE85CFD4FA081B181119636
S11304201C923FEFA0E7B2E03150A040B040E1F7AA
S113043000C000000190F081E02D3681403830E7A3
S113044053076105710509F4A3C024F54038B5E2EA
S11304505B076105710509F46BC074F44036A9E0CB
S11304605A076105710509F443C0403C52416105D6
S1130470710509F44DC0FBC0403438E353076105EE
S1130480710509F465C041155B446105710509F402
S11304906FC0EDC04115B2EC5B07B1E06B077105AD
S11304A009F4A6C074F44115A6E95A07610571055B
S11304B009F47EC04115514E6105710509F488C0E7
S11304C0D6C0403231EA530737E06307710509F4B7
S11304D0AFC04034A2E45A07AFE06A07710509F4DB
S11304E0B7C04039504D6340710509F0C0C090C099
S11304F040E453E055834483FC01EE0FFF1FE85CA6
S1130500FD4F0190F081E02D308132603083AFC027
S113051040EA51E055834483FC01EE0FFF1FE85C81
S1130520FD4F0190F081E02D3081326030839FC017
S113053047E650E055834483FC01EE0FFF1FE85C5F
S1130540FD4F0190F081E02D30813D7F30838FC0DD
S11305504AE850E055834483FC01EE0FFF1FE85C3A
S1130560FD4F0190F081E02D3081326030837FC0F7
S113057043E350E055834483FC01EE0FFF1FE85C26
S1130580FD4F0190F081E02D30813D7F30836FC0BD
S113059044E450E055834483FC01EE0FFF1FE85C04
S11305A0FD4F0190F081E02D3081326030835FC0D7
S11305B049E150E055834483FC01EE0FFF1FE85CE2
S11305C0FD4F0190F081E02D30813D7F30834FC09D
S11305D042E250E055834483FC01EE0FFF1FE85CC8
S11305E0FD4F0190F081E02D3081326030833FC0B7
S11305F040E150E055834483FC01EE0FFF1FE85CAB
S1130600FD4F0190F081E02D3081326030832FC0A6
S113061047E050E055834483FC01EE0FFF1FE85C84
S1130620FD4F0190F081E02D3081326030831FC096
S113063043E050E055834483FC01EE0FFF1FE85C68
S1130640FD4F0190F081E02D3081326030830FC086
S113065041E050E055834483FC01EE0FFF1FE85C4A
S1130660FD4F0190F081E02D308132603083880F9E
S1130670991FFC01E85CFD4FA081B18112962C9377
S11306800190F081E02D818188698183089528E0BB
S1130690829FC0011124FC01EC5BFD4F178216827E
S11306A01082118283818E7F8260838315821482FB
S11306B012820895EF92FF920F931F93CF93DF93CB
S11306C0EC017B0180914A0290914B02892BD9F174
S11306D08091520290915302892B79F080915A02B1
S11306E090915B02892B61F0809162029091630288
S11306F0892B19F503E010E028C001E010E025C0C3
S113070002E010E022C0C130D10531F0CE010197E2
S11307108C239D23892B99F4802FB9DFF801EE0FE8
S1130720FF1FEE0FFF1FEE0FFF1FEC5BFD4FF78265
S1130730E682C150C283802F0CC08FEF0AC08FEFB6
S113074008C08FEF06C000E010E0E114F104D9F610
S1130750F8CFDF91CF911F910F91FF90EF90089503
S11307608F929F92AF92BF92CF92DF92EF92FF92BD
S11307700F931F93CF93DF938C014A015B016901AF
S1130780EC01CC0FDD1FBC01660F771F660F771FCE
S1130790660F771FC60FD71FC05FDD4F6A817B814D
S11307A08C819D8187DFF82E6E817F818885998574
S11307B081DFE82EF88289839601B501A401C8017E
S11307C027DEFF2034F0EE203CF0789480E090E0C7
S11307D005C08FEF9FEF02C08FEF9FEFDF91CF91A6
S11307E01F910F91FF90EF90DF90CF90BF90AF904B
S11307F09F908F900895CF93DF93E82FF0E0DF016F
S1130800AA0FBB1FAA0FBB1FAA0FBB1FAC5BBD4F18
S113081013968C9181FD49C09FB7F894DF01AA0F0C
S1130820BB1FAA0FBB1FAA0FBB1FAC5BBD4F11960A
S11308308C9111971696CD91DC911797C80FD11D05
S11308402881EB0128838F5F12962C9112978223C3
S113085011968C93119714962D913C9115972150D4
S1130860310915963C932E9314972C9182130FC043
S1130870DF01AA0FBB1FAA0FBB1FAA0FBB1FAC5BD4
S1130880BD4F13968C911397826013968C93EE0F41
S1130890FF1FEE0FFF1FEE0FFF1FEC5BFD4F838169
S11308A08E7F83839FBF81E001C080E0DF91CF9181
S11308B008951F920F920FB60F9211240BB60F9248
S11308C02F933F934F935F936F937F938F939F9354
S11308D0AF93BF93EF93FF93CF93DF931F92CDB763
S11308E0DEB780911102E82FF0E0EE0FFF1FEE0F4C
S11308F0FF1FEE0FFF1FEC5BFD4F938191FF08C0BC
S1130900E0913802F091390281818F7D818307C0A3
S1130910BE016F5F7F4F6FDF89818093C6000F90A8
S1130920DF91CF91FF91EF91BF91AF919F918F9103
S11309307F916F915F914F913F912F910F900BBEDB
S11309400F900FBE0F901F9018951F920F920FB625
S11309500F9211240BB60F922F933F934F935F93F3
S11309606F937F938F939F93AF93BF93EF93FF9373
S1130970CF93DF931F92CDB7DEB780911B02E82F90
S1130980F0E0EE0FFF1FEE0FFF1FEE0FFF1FEC5BFB
S1130990FD4F938191FF08C0E0913A02F0913B0230
S11309A081818F7D818307C0BE016F5F7F4F23DF0D
S11309B089818093CE000F90DF91CF91FF91EF91C9
S11309C0BF91AF919F918F917F916F915F914F9163
S11309D03F912F910F900BBE0F900FBE0F901F9061
S11309E018951F920F920FB60F9211240BB60F9207
S11309F02F933F934F935F936F937F938F939F9323
S1130A00AF93BF93EF93FF93CF93DF931F92CDB731
S1130A10DEB780912502E82FF0E0EE0FFF1FEE0F06
S1130A20FF1FEE0FFF1FEC5BFD4F938191FF08C08A
S1130A30E0913C02F0913D0281818F7D818307C06A
S1130A40BE016F5F7F4FD7DE89818093D6000F9000
S1130A50DF91CF91FF91EF91BF91AF919F918F91D2
S1130A607F916F915F914F913F912F910F900BBEAA
S1130A700F900FBE0F901F9018951F920F920FB6F4
S1130A800F9211240BB60F922F933F934F935F93C2
S1130A906F937F938F939F93AF93BF93EF93FF9342
S1130AA0CF93DF931F92CDB7DEB780912F02E82F4B
S1130AB0F0E0EE0FFF1FEE0FFF1FEE0FFF1FEC5BCA
S1130AC0FD4F938191FF08C0E0913E02F0913F02F7
S1130AD081818F7D818307C0BE016F5F7F4F8BDE75
S1130AE08981809336010F90DF91CF91FF91EF912F
S1130AF0BF91AF919F918F917F916F915F914F9132
S1130B003F912F910F900BBE0F900FBE0F901F902F
S1130B101895CF93DF93E82FF0E0DF01AA0FBB1FF6
S1130B20AA0FBB1FAA0FBB1FAC5BBD4F13968C91C2
S1130B3080FD44C09FB7F894DF01AA0FBB1FAA0F22
S1130B40BB1FAA0FBB1FAC5BBD4F8C911696CD91FA
S1130B50DC911797C80FD11D68838F5F12962C9173
S1130B60129782238C9314962D913C9115972F5FA5
S1130B703F4F15963C932E93149711962C91821304
S1130B800FC0DF01AA0FBB1FAA0FBB1FAA0FBB1FF9
S1130B90AC5BBD4F13968C911397816013968C9325
S1130BA0EE0FFF1FEE0FFF1FEE0FFF1FEC5BFD4F5D
S1130BB083818D7F83839FBF81E001C080E0DF91CB
S1130BC0CF9108951F920F920FB60F9211240BB676
S1130BD00F922F933F934F935F936F937F938F93D2
S1130BE09F93AF93BF93EF93FF936091C60080915F
S1130BF010028FDFFF91EF91BF91AF919F918F9181
S1130C007F916F915F914F913F912F910F900BBE08
S1130C100F900FBE0F901F9018951F920F920FB652
S1130C200F9211240BB60F922F933F934F935F9320
S1130C306F937F938F939F93AF93BF93EF93FF93A0
S1130C406091CE0080911A0264DFFF91EF91BF9111
S1130C50AF919F918F917F916F915F914F913F9150
S1130C602F910F900BBE0F900FBE0F901F901895F1
S1130C701F920F920FB60F9211240BB60F922F935F
S1130C803F934F935F936F937F938F939F93AF9310
S1130C90BF93EF93FF936091D6008091240239DFD4
S1130CA0FF91EF91BF91AF919F918F917F916F9140
S1130CB05F914F913F912F910F900BBE0F900FBEFC
S1130CC00F901F9018951F920F920FB60F92112438
S1130CD00BB60F922F933F934F935F936F937F9332
S1130CE08F939F93AF93BF93EF93FF9360913601DC
S1130CF080912E020EDFFF91EF91BF91AF919F91F2
S1130D008F917F916F915F914F913F912F910F90B0
S1130D100BBE0F900FBE0F901F901895EF92FF928D
S1130D200F931F93CF93DF938C01F62EFC01EE0FEC
S1130D30FF1F880F991F880F991F880F991FE80FAD
S1130D40F91FE05FFD4FE180CE2DD0E0FE01EE0FF4
S1130D50FF1FEE0FFF1FEE0FFF1FEC5BFD4F8381A4
S1130D6080FF23C0F801EE0FFF1FE85CFD4F0190E8
S1130D70F081E02D818180628183FE01EE0FFF1FEF
S1130D80EE0FFF1FEE0FFF1FEC5BFD4F838180FF13
S1130D900CC0CC0FDD1FCC0FDD1FCC0FDD1FC95BDA
S1130DA0DD4FC0D9988190FDFCCF6F2D8E2DB1DE23
S1130DB0000F111FF801E85CFD4F0190F081E02D58
S1130DC081818062818381E090E0DF91CF911F91E6
S1130DD00F91FF90EF900895BB274A3031F4992387
S1130DE022F4BDE2909581959F4F01C0BB27FB0182
S1130DF05527AA27880F991FAA1FA41710F0A41B10
S1130E0083955051B9F7A05DAA3308F0A95DA19369
S1130E10009779F7B111B1931192CB0100C0DC01B5
S1130E20FC01672F71917723E1F7329704C07C911D
S1130E306D9370836291AE17BF07C8F30895F89459
S1050E40FFCFDE
S1130E42070407050706070707080709070A070B28
S1130E520000A40340006403400000002403400097
S1130E62E40240000000C4022000A40220000000AA
S1130E728402200064022000C000C800D0003001B7
S9030000FC
