:1000000071C000008EC000008CC000008AC00000DB
:1000100088C0000086C0000084C0000082C00000CC
:1000200080C000007EC000007CC000007AC00000DC
:1000300078C0000076C0000074C0000072C00000EC
:1000400070C000006EC000006CC000006AC00000FC
:1000500068C0000044C2000064C0000062C000002C
:1000600060C000009BC6000010C500005AC0000020
:1000700058C0000056C0000054C0000052C000002C
:1000800050C000004EC000004CC000004AC000003C
:10009000B0C6000046C5000044C0000042C00000D9
:1000A00040C000003EC000003CC000003AC000005C
:1000B00038C0000036C0000034C0000032C000006C
:1000C00030C000002EC000002CC00000BDC60000E3
:1000D00074C5000026C00000E2C60000BAC50000DA
:1000E00020C0000011241FBECFEFD1E2DEBFCDBF84
:1000F00000E00CBF12E0A0E0B2E0EAE1F0E100E0D5
:100100000BBF02C007900D92AC34B107D9F72CE0B9
:10011000ACE4B2E001C01D92A532B207E1F71CD1F8
:100120007AC76ECF2F923F924F925F926F927F92DB
:100130008F929F92AF92BF92CF92DF92EF92FF92F7
:100140000F931F93CF93DF932091F0033091240CF2
:10015000F894EDB6FEB67894E2EFF3E0220FC0E03B
:10016000D2E0C20FD11D1991D881C12F18811A3A3E
:1001700021F08091F003912DFEC1220FE20FF11DBD
:10018000E192F0822091230C3091F103409112040E
:10019000232B242B3091F0034091240C68E08894A9
:1001A00033953770441F411D742F422319F06A950F
:1001B000B9F7E8CF3093F0037093240CE2EFF3E04B
:1001C000330F330FE30FF11D21913081F8942DBFD0
:1001D0003EBF7894DF91CF911F910F91FF90EF90E8
:1001E000DF90CF90BF90AF909F908F907F906F9057
:1001F0005F90852D4F90942D3F90632D2F90722D01
:100200000895EEE0F2E0E80FF11D849108950102F7
:10021000040810204080CF92DF92FF920F931F932B
:10022000CF93DF93C4E0D0E00AE710E00F2EF9E7A8
:10023000CF2ED12CF02DF801808180648083F601CF
:10024000F08085E090E035D12197A9F78F2D90E0DF
:100250009595879595958795DF91CF911F910F91F2
:10026000FF90DF90CF90089584E880937A0080E635
:1002700080937C000895CF92DF92EF92FF920F93CC
:100280001F93CF93DF938C01EB01FC0101900020C1
:10029000E9F73197E81BF90B1E161F065CF431963F
:1002A000E80FF91F9C012F5F3F4F82918183E21776
:1002B000F307D9F78EE2F80181837801C12CD12CA4
:1002C00009C0F70161917F0180E090E013D6FFEF54
:1002D000CF1ADF0AF80101900020E9F73197E01BFF
:1002E000F10BCE16DF0668F300E412E00F2EFAE4FD
:1002F000EF2EF2E0FF2EF02DF80161918F0180E0EA
:1003000090E0F8D5E016F106B9F77E0100E010E0C4
:1003100008C0F70161917F0180E090E0EBD50F5FAD
:100320001F4FFE0101900020E9F73197EC1BFD0BF8
:100330000E171F0770F369E280E090E0DBD56AE0FA
:1003400080E090E0D7D5DF91CF911F910F91FF9082
:10035000EF90DF90CF900895CF93DF93CDB7DEB7C6
:1003600028970FB6F894DEBF0FBECDBF7DDF2AD031
:1003700026E030E040E052EC61E070E080E090E0A8
:10038000DBD280E048DF8C014AE0BE016F5F7F4F27
:100390000FD640E1BE016B5F7F4FC80109D6BE0199
:1003A0006B5F7F4FCE01019666DF88EC90E081D0D5
:1003B000E8CF82E084BD9AEF97BD80936E0083E022
:1003C00085BD0895CF93DF93F8948EEF8093230C2F
:1003D000109212041092F1031092F00381E08093C6
:1003E000240CC2EFD3E082E195E0998388839B835C
:1003F0008A8382E196E09D838C839F838E8382E152
:1004000097E0998788879B878A8782E198E09D8714
:100410008C879F878E8782E199E0998B888B9B8B55
:100420008A8B82E19AE09D8B8C8B9F8B8E8B82E1F5
:100430009BE0998F888F9B8F8A8F82E19CE09D8FB4
:100440008C8F9F8F8E8F8AEA80931304809313057D
:1004500080931306809313078093130880931309E6
:100460008093130A8093130BA4DFEDB7FEB7A88126
:10047000B98185818C93A881B981848111978C93EE
:10048000A881B981838112978C93A881B9818281D7
:1004900013978C93888199812181FC013497208363
:1004A0008881998105979EBF8DBF7894DF91CF9108
:1004B00008959C019FB7F894E091F003F0E0EE0FEF
:1004C000FF1FED5EF34F318320832091F103809174
:1004D000240C822B8093F1039FBF24CE08951F929A
:1004E0000F920FB60F9211240BB60F922F933F93DA
:1004F0004F935F938F939F93AF93BF93EF93FF932C
:1005000080914C0290914D02A0914E02B0914F0209
:100510000196A11DB11D80934C0290934D02A093B2
:100520004E02B0934F023091F103E3E1FCE043E26D
:100530005CE021E080819181019781939193892BE7
:1005400019F4822F80953823220FE417F50791F7CD
:100550003093F103FF91EF91BF91AF919F918F91F4
:100560005F914F913F912F910F900BBE0F900FBE57
:100570000F901F901895AC01279A2F982FEF31EE0E
:1005800074E0215030407040E1F700C0000060E0AE
:1005900080E05523FCF0262F382F95B1905895B95F
:1005A0009FEFE0E772E09150E0407040E1F700C05B
:1005B000000095B1905895B99FEFE9E678E1915028
:1005C000E0407040E1F700C000002F5F3F4F42174E
:1005D00053071CF79FEFE3E224EF9150E0402040E7
:1005E000E1F700C00000D5CFFC01EE0FFF1FE85C73
:1005F000FD4FA081B18111961C923FEFA0E7B2E0C0
:100600003150A040B040E1F700C000000190F081FF
:10061000E02D3681403830E753076105710509F454
:10062000A3C024F54038B5E25B076105710509F404
:100630006BC074F44036A9E05A076105710509F4EE
:1006400043C0403C52416105710509F44DC0FBC0F7
:10065000403438E353076105710509F465C041155D
:100660005B446105710509F46FC0EDC04115B2EC42
:100670005B07B1E06B07710509F4A6C074F441157E
:10068000A6E95A076105710509F47EC04115514E6E
:100690006105710509F488C0D6C0403231EA5307BC
:1006A00037E06307710509F4AFC04034A2E45A078C
:1006B000AFE06A07710509F4B7C04039504D634097
:1006C000710509F0C0C090C040E453E055834483F5
:1006D000FC01EE0FFF1FE85CFD4F0190F081E02D63
:1006E000308132603083AFC040EA51E055834483AB
:1006F000FC01EE0FFF1FE85CFD4F0190F081E02D43
:100700003081326030839FC047E650E05583448398
:10071000FC01EE0FFF1FE85CFD4F0190F081E02D22
:1007200030813D7F30838FC04AE850E05583448359
:10073000FC01EE0FFF1FE85CFD4F0190F081E02D02
:100740003081326030837FC043E350E0558344837F
:10075000FC01EE0FFF1FE85CFD4F0190F081E02DE2
:1007600030813D7F30836FC044E450E05583448343
:10077000FC01EE0FFF1FE85CFD4F0190F081E02DC2
:100780003081326030835FC049E150E0558344835B
:10079000FC01EE0FFF1FE85CFD4F0190F081E02DA2
:1007A00030813D7F30834FC042E250E05583448327
:1007B000FC01EE0FFF1FE85CFD4F0190F081E02D82
:1007C0003081326030833FC040E150E05583448344
:1007D000FC01EE0FFF1FE85CFD4F0190F081E02D62
:1007E0003081326030832FC047E050E0558344832E
:1007F000FC01EE0FFF1FE85CFD4F0190F081E02D42
:100800003081326030831FC043E050E05583448321
:10081000FC01EE0FFF1FE85CFD4F0190F081E02D21
:100820003081326030830FC041E050E05583448313
:10083000FC01EE0FFF1FE85CFD4F0190F081E02D01
:10084000308132603083880F991FFC01E85CFD4FD6
:10085000A081B18112962C930190F081E02D8181CD
:1008600088698183089528E0829FC0011124FC01DA
:10087000E05BFD4F178216821082118283818E7F8A
:10088000826083831582148212820895EF92FF9210
:100890000F931F93CF93DF93EC017B01809156025E
:1008A00090915702892BD9F180915E0290915F025D
:1008B000892B79F08091660290916702892B61F013
:1008C00080916E0290916F02892B19F503E010E080
:1008D00028C001E010E025C002E010E022C0C130D5
:1008E000D10531F0CE0101978C239D23892B99F4FA
:1008F000802FB9DFF801EE0FFF1FEE0FFF1FEE0F85
:10090000FF1FE05BFD4FF782E682C150C283802F5C
:100910000CC08FEF0AC08FEF08C08FEF06C000E059
:1009200010E0E114F104D9F6F8CFDF91CF911F91D7
:100930000F91FF90EF9008958F929F92AF92BF9288
:10094000CF92DF92EF92FF920F931F93CF93DF939B
:100950008C014A015B016901EC01CC0FDD1FBC0178
:10096000660F771F660F771F660F771FC60FD71F9B
:10097000C05FDD4F6A817B818C819D8187DFF82E8E
:100980006E817F818885998581DFE82EF882898351
:100990009601B501A401C80127DEFF2034F0EE2046
:1009A0003CF0789480E090E005C08FEF9FEF02C0AC
:1009B0008FEF9FEFDF91CF911F910F91FF90EF90FD
:1009C000DF90CF90BF90AF909F908F900895CF937E
:1009D000DF93E82FF0E0DF01AA0FBB1FAA0FBB1FB8
:1009E000AA0FBB1FA05BBD4F13968C9181FD49C020
:1009F0009FB7F894DF01AA0FBB1FAA0FBB1FAA0F56
:100A0000BB1FA05BBD4F11968C9111971696CD918F
:100A1000DC911797C80FD11D2881EB0128838F5FC8
:100A200012962C911297822311968C9311971496FB
:100A30002D913C9115972150310915963C932E9399
:100A400014972C9182130FC0DF01AA0FBB1FAA0FAE
:100A5000BB1FAA0FBB1FA05BBD4F13968C911397B2
:100A6000826013968C93EE0FFF1FEE0FFF1FEE0FA9
:100A7000FF1FE05BFD4F83818E7F83839FBF81E0FB
:100A800001C080E0DF91CF9108951F920F920FB6C1
:100A90000F9211240BB60F922F933F934F935F93B6
:100AA0006F937F938F939F93AF93BF93EF93FF9336
:100AB000CF93DF931F92CDB7DEB780911102E82F5D
:100AC000F0E0EE0FFF1FEE0FFF1FEE0FFF1FE05BCA
:100AD000FD4F938191FF08C0E0913802F0913902F7
:100AE00081818F7D818307C0BE016F5F7F4F6FDF84
:100AF00089818093C6000F90DF91CF91FF91EF9194
:100B0000BF91AF919F918F917F916F915F914F9125
:100B10003F912F910F900BBE0F900FBE0F901F9023
:100B200018951F920F920FB60F9211240BB60F92C9
:100B30002F933F934F935F936F937F938F939F93E5
:100B4000AF93BF93EF93FF93CF93DF931F92CDB7F4
:100B5000DEB780911B02E82FF0E0EE0FFF1FEE0FD3
:100B6000FF1FEE0FFF1FE05BFD4F938191FF08C059
:100B7000E0913A02F0913B0281818F7D818307C031
:100B8000BE016F5F7F4F23DF89818093CE000F907E
:100B9000DF91CF91FF91EF91BF91AF919F918F9195
:100BA0007F916F915F914F913F912F910F900BBE6D
:100BB0000F900FBE0F901F9018951F920F920FB6B7
:100BC0000F9211240BB60F922F933F934F935F9385
:100BD0006F937F938F939F93AF93BF93EF93FF9305
:100BE000CF93DF931F92CDB7DEB780912502E82F18
:100BF000F0E0EE0FFF1FEE0FFF1FEE0FFF1FE05B99
:100C0000FD4F938191FF08C0E0913C02F0913D02BD
:100C100081818F7D818307C0BE016F5F7F4FD7DEEB
:100C200089818093D6000F90DF91CF91FF91EF9152
:100C3000BF91AF919F918F917F916F915F914F91F4
:100C40003F912F910F900BBE0F900FBE0F901F90F2
:100C500018951F920F920FB60F9211240BB60F9298
:100C60002F933F934F935F936F937F938F939F93B4
:100C7000AF93BF93EF93FF93CF93DF931F92CDB7C3
:100C8000DEB780912F02E82FF0E0EE0FFF1FEE0F8E
:100C9000FF1FEE0FFF1FE05BFD4F938191FF08C028
:100CA000E0913E02F0913F0281818F7D818307C0F8
:100CB000BE016F5F7F4F8BDE8981809336010F907D
:100CC000DF91CF91FF91EF91BF91AF919F918F9164
:100CD0007F916F915F914F913F912F910F900BBE3C
:100CE0000F900FBE0F901F901895CF93DF93E82FB2
:100CF000F0E0DF01AA0FBB1FAA0FBB1FAA0FBB1F8B
:100D0000A05BBD4F13968C9180FD44C09FB7F894B3
:100D1000DF01AA0FBB1FAA0FBB1FAA0FBB1FA05B3F
:100D2000BD4F8C911696CD91DC911797C80FD11DB0
:100D300068838F5F12962C91129782238C9314965E
:100D40002D913C9115972F5F3F4F15963C932E9315
:100D5000149711962C9182130FC0DF01AA0FBB1FAD
:100D6000AA0FBB1FAA0FBB1FA05BBD4F13968C9190
:100D70001397816013968C93EE0FFF1FEE0FFF1FEA
:100D8000EE0FFF1FE05BFD4F83818D7F83839FBF4D
:100D900081E001C080E0DF91CF9108951F920F9212
:100DA0000FB60F9211240BB60F922F933F934F93D0
:100DB0005F936F937F938F939F93AF93BF93EF93C3
:100DC000FF936091C600809110028FDFFF91EF9139
:100DD000BF91AF919F918F917F916F915F914F9153
:100DE0003F912F910F900BBE0F900FBE0F901F9051
:100DF00018951F920F920FB60F9211240BB60F92F7
:100E00002F933F934F935F936F937F938F939F9312
:100E1000AF93BF93EF93FF936091CE0080911A023E
:100E200064DFFF91EF91BF91AF919F918F917F917F
:100E30006F915F914F913F912F910F900BBE0F904B
:100E40000FBE0F901F9018951F920F920FB60F9222
:100E500011240BB60F922F933F934F935F936F9391
:100E60007F938F939F93AF93BF93EF93FF93609183
:100E7000D6008091240239DFFF91EF91BF91AF91AD
:100E80009F918F917F916F915F914F913F912F91A2
:100E90000F900BBE0F900FBE0F901F9018951F92D2
:100EA0000F920FB60F9211240BB60F922F933F9310
:100EB0004F935F936F937F938F939F93AF93BF9362
:100EC000EF93FF936091360180912E020EDFFF9128
:100ED000EF91BF91AF919F918F917F916F915F91B2
:100EE0004F913F912F910F900BBE0F900FBE0F901F
:100EF0001F901895EF92FF920F931F93CF93DF935C
:100F00008C01F62EFC01EE0FFF1F880F991F880F32
:100F1000991F880F991FE80FF91FE05FFD4FE180CF
:100F2000CE2DD0E0FE01EE0FFF1FEE0FFF1FEE0FE4
:100F3000FF1FE05BFD4F838180FF23C0F801EE0FB0
:100F4000FF1FE85CFD4F0190F081E02D8181806200
:100F50008183FE01EE0FFF1FEE0FFF1FEE0FFF1F3D
:100F6000E05BFD4F838180FF0CC0CC0FDD1FCC0FF9
:100F7000DD1FCC0FDD1FCD5ADD4FD4D8988190FDF9
:100F8000FCCF6F2D8E2DB1DE000F111FF801E85C34
:100F9000FD4F0190F081E02D81818062818381E0AD
:100FA00090E0DF91CF911F910F91FF90EF90089506
:100FB000BB274A3031F4992322F4BDE29095819504
:100FC0009F4F01C0BB27FB015527AA27880F991FF8
:100FD000AA1FA41710F0A41B83955051B9F7A05D68
:100FE000AA3308F0A95DA193009779F7B111B193E5
:100FF0001192CB0100C0DC01FC01672F71917723B6
:10100000E1F7329704C07C916D9370836291AE17C3
:0A101000BF07C8F30895F894FFCF5E
:10101A00130413051306130713081309130A130BF2
:10102A000000B0034000700340000000300340009D
:10103A00F00240000000D0022000B00220000000B0
:10104A009002200070022000C000C800D0003001C9
:0C105A003020766F6C7473283058000052
:00000001FF
